{
  "contractName": "EventTicketsV2",
  "abi": [
    {
      "constant": true,
      "inputs": [
        {
          "name": "",
          "type": "uint256"
        }
      ],
      "name": "events",
      "outputs": [
        {
          "name": "description",
          "type": "string"
        },
        {
          "name": "website",
          "type": "string"
        },
        {
          "name": "totalTickets",
          "type": "uint256"
        },
        {
          "name": "sales",
          "type": "uint256"
        },
        {
          "name": "isOpen",
          "type": "bool"
        }
      ],
      "payable": false,
      "stateMutability": "view",
      "type": "function"
    },
    {
      "constant": true,
      "inputs": [],
      "name": "owner",
      "outputs": [
        {
          "name": "",
          "type": "address"
        }
      ],
      "payable": false,
      "stateMutability": "view",
      "type": "function"
    },
    {
      "constant": true,
      "inputs": [],
      "name": "idGenerator",
      "outputs": [
        {
          "name": "",
          "type": "uint256"
        }
      ],
      "payable": false,
      "stateMutability": "view",
      "type": "function"
    },
    {
      "inputs": [],
      "payable": true,
      "stateMutability": "payable",
      "type": "constructor"
    },
    {
      "anonymous": false,
      "inputs": [
        {
          "indexed": false,
          "name": "desc",
          "type": "string"
        },
        {
          "indexed": false,
          "name": "url",
          "type": "string"
        },
        {
          "indexed": false,
          "name": "ticketsAvailable",
          "type": "uint256"
        },
        {
          "indexed": false,
          "name": "eventId",
          "type": "uint256"
        }
      ],
      "name": "LogEventAdded",
      "type": "event"
    },
    {
      "anonymous": false,
      "inputs": [
        {
          "indexed": false,
          "name": "buyer",
          "type": "address"
        },
        {
          "indexed": false,
          "name": "eventId",
          "type": "uint256"
        },
        {
          "indexed": false,
          "name": "numTickets",
          "type": "uint256"
        }
      ],
      "name": "LogBuyTickets",
      "type": "event"
    },
    {
      "anonymous": false,
      "inputs": [
        {
          "indexed": false,
          "name": "accountRefunded",
          "type": "address"
        },
        {
          "indexed": false,
          "name": "eventId",
          "type": "uint256"
        },
        {
          "indexed": false,
          "name": "numTickets",
          "type": "uint256"
        }
      ],
      "name": "LogGetRefund",
      "type": "event"
    },
    {
      "anonymous": false,
      "inputs": [
        {
          "indexed": false,
          "name": "owner",
          "type": "address"
        },
        {
          "indexed": false,
          "name": "balance",
          "type": "uint256"
        },
        {
          "indexed": false,
          "name": "eventId",
          "type": "uint256"
        }
      ],
      "name": "LogEndSale",
      "type": "event"
    },
    {
      "constant": false,
      "inputs": [
        {
          "name": "_description",
          "type": "string"
        },
        {
          "name": "_websiteURL",
          "type": "string"
        },
        {
          "name": "_tickets4Sale",
          "type": "uint256"
        }
      ],
      "name": "addEvent",
      "outputs": [
        {
          "name": "",
          "type": "uint256"
        }
      ],
      "payable": true,
      "stateMutability": "payable",
      "type": "function"
    },
    {
      "constant": true,
      "inputs": [
        {
          "name": "_eventID",
          "type": "uint256"
        }
      ],
      "name": "readEvent",
      "outputs": [
        {
          "name": "description",
          "type": "string"
        },
        {
          "name": "website",
          "type": "string"
        },
        {
          "name": "totalTickets",
          "type": "uint256"
        },
        {
          "name": "sales",
          "type": "uint256"
        },
        {
          "name": "isEventOpen",
          "type": "bool"
        }
      ],
      "payable": false,
      "stateMutability": "view",
      "type": "function"
    },
    {
      "constant": false,
      "inputs": [
        {
          "name": "_eventID",
          "type": "uint256"
        },
        {
          "name": "_numTicketsToBuy",
          "type": "uint256"
        }
      ],
      "name": "buyTickets",
      "outputs": [],
      "payable": true,
      "stateMutability": "payable",
      "type": "function"
    },
    {
      "constant": false,
      "inputs": [
        {
          "name": "_eventId",
          "type": "uint256"
        }
      ],
      "name": "getRefund",
      "outputs": [],
      "payable": true,
      "stateMutability": "payable",
      "type": "function"
    },
    {
      "constant": true,
      "inputs": [
        {
          "name": "eventId",
          "type": "uint256"
        },
        {
          "name": "_buyersAddr",
          "type": "address"
        }
      ],
      "name": "getBuyerNumberTickets",
      "outputs": [
        {
          "name": "totalTickets",
          "type": "uint256"
        }
      ],
      "payable": false,
      "stateMutability": "view",
      "type": "function"
    },
    {
      "constant": false,
      "inputs": [
        {
          "name": "_eventId",
          "type": "uint256"
        }
      ],
      "name": "endSale",
      "outputs": [],
      "payable": true,
      "stateMutability": "payable",
      "type": "function"
    }
  ],
  "bytecode": "0x60806040526064600155336000806101000a81548173ffffffffffffffffffffffffffffffffffffffff021916908373ffffffffffffffffffffffffffffffffffffffff1602179055506111da806100586000396000f3fe6080604052600436106100865760003560e01c80638627df46116100595780638627df46146103d15780638da5cb5b14610409578063d2f0be9914610460578063e1ba30a91461048e578063e7bd92b9146105c757610086565b806304d1a8461461008b5780630b791430146100b95780634da19f20146101f257806376c1811e14610362575b600080fd5b6100b7600480360360208110156100a157600080fd5b81019080803590602001909291905050506105f2565b005b3480156100c557600080fd5b506100f2600480360360208110156100dc57600080fd5b8101908080359060200190929190505050610650565b60405180806020018060200186815260200185815260200184151515158152602001838103835288818151815260200191508051906020019080838360005b8381101561014c578082015181840152602081019050610131565b50505050905090810190601f1680156101795780820380516001836020036101000a031916815260200191505b50838103825287818151815260200191508051906020019080838360005b838110156101b2578082015181840152602081019050610197565b50505050905090810190601f1680156101df5780820380516001836020036101000a031916815260200191505b5097505050505050505060405180910390f35b61034c6004803603606081101561020857600080fd5b810190808035906020019064010000000081111561022557600080fd5b82018360208201111561023757600080fd5b8035906020019184600183028401116401000000008311171561025957600080fd5b91908080601f016020809104026020016040519081016040528093929190818152602001838380828437600081840152601f19601f820116905080830192505050505050509192919290803590602001906401000000008111156102bc57600080fd5b8201836020820111156102ce57600080fd5b803590602001918460018302840111640100000000831117156102f057600080fd5b91908080601f016020809104026020016040519081016040528093929190818152602001838380828437600081840152601f19601f820116905080830192505050505050509192919290803590602001909291905050506107c3565b6040518082815260200191505060405180910390f35b34801561036e57600080fd5b506103bb6004803603604081101561038557600080fd5b8101908080359060200190929190803573ffffffffffffffffffffffffffffffffffffffff169060200190929190505050610a10565b6040518082815260200191505060405180910390f35b610407600480360360408110156103e757600080fd5b810190808035906020019092919080359060200190929190505050610a6e565b005b34801561041557600080fd5b5061041e610c30565b604051808273ffffffffffffffffffffffffffffffffffffffff1673ffffffffffffffffffffffffffffffffffffffff16815260200191505060405180910390f35b61048c6004803603602081101561047657600080fd5b8101908080359060200190929190505050610c55565b005b34801561049a57600080fd5b506104c7600480360360208110156104b157600080fd5b8101908080359060200190929190505050610ef8565b60405180806020018060200186815260200185815260200184151515158152602001838103835288818151815260200191508051906020019080838360005b83811015610521578082015181840152602081019050610506565b50505050905090810190601f16801561054e5780820380516001836020036101000a031916815260200191505b50838103825287818151815260200191508051906020019080838360005b8381101561058757808201518184015260208101905061056c565b50505050905090810190601f1680156105b45780820380516001836020036101000a031916815260200191505b5097505050505050505060405180910390f35b3480156105d357600080fd5b506105dc6110d2565b6040518082815260200191505060405180910390f35b338073ffffffffffffffffffffffffffffffffffffffff166000809054906101000a900473ffffffffffffffffffffffffffffffffffffffff1673ffffffffffffffffffffffffffffffffffffffff161461064c57600080fd5b5050565b6003602052806000526040600020600091509050806000018054600181600116156101000203166002900480601f0160208091040260200160405190810160405280929190818152602001828054600181600116156101000203166002900480156106fc5780601f106106d1576101008083540402835291602001916106fc565b820191906000526020600020905b8154815290600101906020018083116106df57829003601f168201915b505050505090806001018054600181600116156101000203166002900480601f01602080910402602001604051908101604052809291908181526020018280546001816001161561010002031660029004801561079a5780601f1061076f5761010080835404028352916020019161079a565b820191906000526020600020905b81548152906001019060200180831161077d57829003601f168201915b5050505050908060020154908060030154908060050160009054906101000a900460ff16905085565b6000338073ffffffffffffffffffffffffffffffffffffffff166000809054906101000a900473ffffffffffffffffffffffffffffffffffffffff1673ffffffffffffffffffffffffffffffffffffffff161461081f57600080fd5b6108276110d8565b858160000181905250848160200181905250838160400181815250506001816080019015159081151581525050806003600060025481526020019081526020016000206000820151816000019080519060200190610886929190611109565b5060208201518160010190805190602001906108a3929190611109565b50604082015181600201556060820151816003015560808201518160050160006101000a81548160ff0219169083151502179055509050506001600254016002819055507f7d1d82c13762b51876068c852c5d404d0fa38fb615c14eebefafb60bdb4bd1b2868686600254604051808060200180602001858152602001848152602001838103835287818151815260200191508051906020019080838360005b8381101561095e578082015181840152602081019050610943565b50505050905090810190601f16801561098b5780820380516001836020036101000a031916815260200191505b50838103825286818151815260200191508051906020019080838360005b838110156109c45780820151818401526020810190506109a9565b50505050905090810190601f1680156109f15780820380516001836020036101000a031916815260200191505b50965050505050505060405180910390a1600254925050509392505050565b60006003600084815260200190815260200160002060040160008373ffffffffffffffffffffffffffffffffffffffff1673ffffffffffffffffffffffffffffffffffffffff16815260200190815260200160002054905092915050565b816003600082815260200190815260200160002060050160009054906101000a900460ff16610a9c57600080fd5b818060015402341015610aae57600080fd5b83836003600083815260200190815260200160002060020154811115610ad357600080fd5b843386600360008a815260200190815260200160002060040160003373ffffffffffffffffffffffffffffffffffffffff1673ffffffffffffffffffffffffffffffffffffffff1681526020019081526020016000206000828254019250508190555086600360008a8152602001908152602001600020600201600082825403925050819055507f15827fa78fedf80f93aa72ce61e705b1362cab60ae596b1bb327076fc3856c24338989604051808473ffffffffffffffffffffffffffffffffffffffff1673ffffffffffffffffffffffffffffffffffffffff168152602001838152602001828152602001935050505060405180910390a1600082600154029050600081340390508273ffffffffffffffffffffffffffffffffffffffff166108fc829081150290604051600060405180830381858888f19350505050158015610c23573d6000803e3d6000fd5b5050505050505050505050565b6000809054906101000a900473ffffffffffffffffffffffffffffffffffffffff1681565b8060006003600083815260200190815260200160002060040160003373ffffffffffffffffffffffffffffffffffffffff1673ffffffffffffffffffffffffffffffffffffffff1681526020019081526020016000205411610cb657600080fd5b81336003600085815260200190815260200160002060040160003373ffffffffffffffffffffffffffffffffffffffff1673ffffffffffffffffffffffffffffffffffffffff1681526020019081526020016000205460036000868152602001908152602001600020600201600082825401925050819055507f73ebb2050cb3ee6869929e7a26925e92e201f14902e155037f1f90af931b323333856003600088815260200190815260200160002060040160003373ffffffffffffffffffffffffffffffffffffffff1673ffffffffffffffffffffffffffffffffffffffff16815260200190815260200160002054604051808473ffffffffffffffffffffffffffffffffffffffff1673ffffffffffffffffffffffffffffffffffffffff168152602001838152602001828152602001935050505060405180910390a160006003600084815260200190815260200160002060040160003373ffffffffffffffffffffffffffffffffffffffff1673ffffffffffffffffffffffffffffffffffffffff1681526020019081526020016000205460015402905060006003600085815260200190815260200160002060040160003373ffffffffffffffffffffffffffffffffffffffff1673ffffffffffffffffffffffffffffffffffffffff168152602001908152602001600020819055508173ffffffffffffffffffffffffffffffffffffffff166108fc829081150290604051600060405180830381858888f19350505050158015610ef0573d6000803e3d6000fd5b505050505050565b6060806000806000600360008781526020019081526020016000206000018054600181600116156101000203166002900480601f016020809104026020016040519081016040528092919081815260200182805460018160011615610100020316600290048015610faa5780601f10610f7f57610100808354040283529160200191610faa565b820191906000526020600020905b815481529060010190602001808311610f8d57829003601f168201915b50505050509450600360008781526020019081526020016000206001018054600181600116156101000203166002900480601f01602080910402602001604051908101604052809291908181526020018280546001816001161561010002031660029004801561105b5780601f106110305761010080835404028352916020019161105b565b820191906000526020600020905b81548152906001019060200180831161103e57829003601f168201915b5050505050935060036000878152602001908152602001600020600201549250600360008781526020019081526020016000206003015491506003600087815260200190815260200160002060050160009054906101000a900460ff16905084848484849450945094509450945091939590929450565b60025481565b6040518060a00160405280606081526020016060815260200160008152602001600081526020016000151581525090565b828054600181600116156101000203166002900490600052602060002090601f016020900481019282601f1061114a57805160ff1916838001178555611178565b82800160010185558215611178579182015b8281111561117757825182559160200191906001019061115c565b5b5090506111859190611189565b5090565b6111ab91905b808211156111a757600081600090555060010161118f565b5090565b9056fea165627a7a72305820015863e1122da1040ce51016e843a152e1ff9da8d4d7603f12fcaff847fd4cbe0029",
  "source": "pragma solidity ^0.5.0;\r\n\r\n    /*\r\n        The EventTicketsV2 contract keeps track of the details and ticket sales of multiple events.\r\n     */\r\ncontract EventTicketsV2 {\r\n\r\n    /*\r\n        Define an public owner variable. Set it to the creator of the contract when it is initialized.\r\n    */\r\n    address public owner;\r\n    uint   PRICE_TICKET = 100 wei;\r\n\r\n    constructor() public payable {\r\n        owner = msg.sender;\r\n    }\r\n\r\n    /*\r\n        Create a variable to keep track of the event ID numbers.\r\n    */\r\n    uint public idGenerator;\r\n\r\n    /*\r\n        Define an Event struct, similar to the V1 of this contract.\r\n        The struct has 6 fields: description, website (URL), totalTickets, sales, buyers, and isOpen.\r\n        Choose the appropriate variable type for each field.\r\n        The \"buyers\" field should keep track of addresses and how many tickets each buyer purchases.\r\n    */\r\n    struct Event {\r\n        string description;\r\n        string website;\r\n        uint totalTickets;\r\n        uint sales;\r\n        mapping (address => uint) buyers;\r\n        bool isOpen;\r\n    }\r\n\r\n    /*\r\n        Create a mapping to keep track of the events.\r\n        The mapping key is an integer, the value is an Event struct.\r\n        Call the mapping \"events\".\r\n    */\r\n    mapping (uint => Event) public events;\r\n\r\n    event LogEventAdded(string desc, string url, uint ticketsAvailable, uint eventId);\r\n    event LogBuyTickets(address buyer, uint eventId, uint numTickets);\r\n    event LogGetRefund(address accountRefunded, uint eventId, uint numTickets);\r\n    event LogEndSale(address owner, uint balance, uint eventId);\r\n\r\n    /*\r\n        Create a modifier that throws an error if the msg.sender is not the owner.\r\n    */\r\n    modifier isOwner(address _address) { require (owner == _address); _;}\r\n    modifier isOpen(uint _eventID) { require (events[_eventID].isOpen); _; }\r\n    modifier paidEnough(uint _numTicketsToBuy) { require(msg.value >= (PRICE_TICKET * _numTicketsToBuy )); _;}\r\n    modifier enoughTickets(uint _eventID, uint _numTicketsToBuy) { require(_numTicketsToBuy <= events[_eventID].totalTickets); _; }\r\n    modifier hasPurchasedTickets(uint _eventId) { require(events[_eventId].buyers[msg.sender] > 0); _; }\r\n\r\n    modifier refund(uint _eventId, address payable _addr) {\r\n        _;\r\n        uint amountToRefund = PRICE_TICKET * events[_eventId].buyers[msg.sender];\r\n        events[_eventId].buyers[msg.sender] = 0;\r\n        _addr.transfer(amountToRefund);\r\n    }\r\n\r\n    modifier checkValue(uint _numTicketsToBuy, address payable _addr)  {\r\n    //refund them after pay for item\r\n        _;\r\n        uint _price = PRICE_TICKET * _numTicketsToBuy;\r\n        uint amountToRefund = msg.value - _price;\r\n        _addr.transfer(amountToRefund);\r\n    }\r\n\r\n    /*\r\n        Define a function called addEvent().\r\n        This function takes 3 parameters, an event description, a URL, and a number of tickets.\r\n        Only the contract owner should be able to call this function.\r\n        In the function:\r\n            - Set the description, URL and ticket number in a new event.\r\n            - set the event to open\r\n            - set an event ID\r\n            - increment the ID\r\n            - emit the appropriate event\r\n            - return the event's ID\r\n    */\r\n    function addEvent(string memory _description, string memory _websiteURL, uint _tickets4Sale)\r\n    public payable\r\n    isOwner(msg.sender)\r\n    returns (uint)\r\n    {\r\n        Event memory myEvent;\r\n        myEvent.description = _description;\r\n        myEvent.website = _websiteURL;\r\n        myEvent.totalTickets = _tickets4Sale;\r\n        myEvent.isOpen = true;\r\n        events[idGenerator] = myEvent;\r\n        idGenerator = idGenerator + 1;\r\n        emit LogEventAdded(_description, _websiteURL, _tickets4Sale, idGenerator);\r\n        return (idGenerator);\r\n    }\r\n\r\n    /*\r\n        Define a function called readEvent().\r\n        This function takes one parameter, the event ID.\r\n        The function returns information about the event this order:\r\n            1. description\r\n            2. URL\r\n            3. tickets available\r\n            4. sales\r\n            5. isOpen\r\n    */\r\n    function readEvent(uint _eventID)\r\n        public\r\n        view\r\n        returns(string memory description, string memory website, uint totalTickets, uint sales, bool isEventOpen)\r\n    {\r\n        description = events[_eventID].description;\r\n        website = events[_eventID].website;\r\n        totalTickets = events[_eventID].totalTickets;\r\n        sales = events[_eventID].sales;\r\n        isEventOpen = events[_eventID].isOpen;\r\n        return (description, website, totalTickets, sales, isEventOpen);\r\n    }\r\n\r\n    /*\r\n        Define a function called buyTickets().\r\n        This function allows users to buy tickets for a specific event.\r\n        This function takes 2 parameters, an event ID and a number of tickets.\r\n        The function checks:\r\n            - that the event sales are open\r\n            - that the transaction value is sufficient to purchase the number of tickets\r\n            - that there are enough tickets available to complete the purchase\r\n        The function:\r\n            - increments the purchasers ticket count\r\n            - increments the ticket sale count\r\n            - refunds any surplus value sent\r\n            - emits the appropriate event\r\n    */\r\n    function buyTickets(uint _eventID, uint _numTicketsToBuy)\r\n    public\r\n    payable\r\n    isOpen(_eventID)\r\n    paidEnough(_numTicketsToBuy) //there is no price per event. Its a global ticket price\r\n    enoughTickets(_eventID, _numTicketsToBuy)\r\n    checkValue(_numTicketsToBuy, msg.sender)\r\n    {\r\n        events[_eventID].buyers[msg.sender] += _numTicketsToBuy;\r\n        events[_eventID].totalTickets -= _numTicketsToBuy;\r\n        emit LogBuyTickets(msg.sender, _eventID, _numTicketsToBuy);\r\n    }\r\n\r\n    /*\r\n        Define a function called getRefund().\r\n        This function allows users to request a refund for a specific event.\r\n        This function takes one parameter, the event ID.\r\n        TODO:\r\n            - check that a user has purchased tickets for the event\r\n            - remove refunded tickets from the sold count\r\n            - send appropriate value to the refund requester\r\n            - emit the appropriate event\r\n    */\r\n    function getRefund(uint _eventId)\r\n    public\r\n    payable\r\n    hasPurchasedTickets(_eventId)\r\n    refund(_eventId, msg.sender)\r\n    {\r\n        events[_eventId].totalTickets += events[_eventId].buyers[msg.sender];\r\n        emit LogGetRefund(msg.sender, _eventId, events[_eventId].buyers[msg.sender]);\r\n    }\r\n\r\n    \r\n    /*\r\n        Define a function called getBuyerNumberTickets()\r\n        This function takes one parameter, an event ID\r\n        This function returns a uint, the number of tickets that the msg.sender has purchased.\r\n    */\r\n    function getBuyerNumberTickets(uint eventId, address _buyersAddr)\r\n    public\r\n    view\r\n    returns(uint totalTickets)\r\n    {\r\n        return (events[eventId].buyers[_buyersAddr]);\r\n    }\r\n\r\n    /*\r\n        Define a function called endSale()\r\n        This function takes one parameter, the event ID\r\n        Only the contract owner can call this function\r\n        TODO:\r\n            - close event sales\r\n            - transfer the balance from those event sales to the contract owner\r\n            - emit the appropriate event\r\n    */\r\n    function endSale(uint _eventId)\r\n    public\r\n    payable\r\n    isOwner(msg.sender)\r\n    //withdrawBalance()\r\n    {\r\n        //transfer the balance from those event sales to the contract owner\r\n        //emit the appropriate event\r\n    }\r\n}\r\n",
  "sourcePath": "G:/Personal/ConsenSys/EventTickets/event-ticket-exercise-JafCR/contracts/EventTicketsV2.sol",
  "compiler": {
    "name": "solc",
    "version": "0.5.8+commit.23d335f2.Emscripten.clang"
  },
  "schemaVersion": "3.0.17",
  "updatedAt": "2019-11-11T15:10:24.492Z",
  "devdoc": {
    "methods": {}
  },
  "userdoc": {
    "methods": {}
  }
}