{
  "contractName": "EventTickets",
  "abi": [
    {
      "constant": true,
      "inputs": [],
      "name": "owner",
      "outputs": [
        {
          "name": "",
          "type": "address"
        }
      ],
      "payable": false,
      "stateMutability": "view",
      "type": "function"
    },
    {
      "constant": true,
      "inputs": [],
      "name": "myEvent",
      "outputs": [
        {
          "name": "description",
          "type": "string"
        },
        {
          "name": "website",
          "type": "string"
        },
        {
          "name": "totalTickets",
          "type": "uint256"
        },
        {
          "name": "sales",
          "type": "uint256"
        },
        {
          "name": "isOpen",
          "type": "bool"
        }
      ],
      "payable": false,
      "stateMutability": "view",
      "type": "function"
    },
    {
      "inputs": [
        {
          "name": "_description",
          "type": "string"
        },
        {
          "name": "_websiteURL",
          "type": "string"
        },
        {
          "name": "_tickets4Sale",
          "type": "uint256"
        }
      ],
      "payable": true,
      "stateMutability": "payable",
      "type": "constructor"
    },
    {
      "payable": true,
      "stateMutability": "payable",
      "type": "fallback"
    },
    {
      "anonymous": false,
      "inputs": [
        {
          "indexed": false,
          "name": "addr",
          "type": "address"
        },
        {
          "indexed": false,
          "name": "numTickets",
          "type": "uint256"
        }
      ],
      "name": "LogBuyTickets",
      "type": "event"
    },
    {
      "anonymous": false,
      "inputs": [
        {
          "indexed": false,
          "name": "addr",
          "type": "address"
        },
        {
          "indexed": false,
          "name": "numTicketsRefunded",
          "type": "uint256"
        }
      ],
      "name": "LogGetRefund",
      "type": "event"
    },
    {
      "anonymous": false,
      "inputs": [
        {
          "indexed": false,
          "name": "addr",
          "type": "address"
        },
        {
          "indexed": false,
          "name": "balanceTransferred",
          "type": "uint256"
        }
      ],
      "name": "LogEndSale",
      "type": "event"
    },
    {
      "constant": true,
      "inputs": [],
      "name": "readEvent",
      "outputs": [
        {
          "name": "description",
          "type": "string"
        },
        {
          "name": "website",
          "type": "string"
        },
        {
          "name": "totalTickets",
          "type": "uint256"
        },
        {
          "name": "sales",
          "type": "uint256"
        },
        {
          "name": "isOpen",
          "type": "bool"
        }
      ],
      "payable": false,
      "stateMutability": "view",
      "type": "function"
    },
    {
      "constant": true,
      "inputs": [
        {
          "name": "_addr",
          "type": "address"
        }
      ],
      "name": "getBuyerTicketCount",
      "outputs": [
        {
          "name": "ticketsPurchased",
          "type": "uint256"
        }
      ],
      "payable": false,
      "stateMutability": "view",
      "type": "function"
    },
    {
      "constant": false,
      "inputs": [
        {
          "name": "_numTicketsToBuy",
          "type": "uint256"
        }
      ],
      "name": "buyTickets",
      "outputs": [],
      "payable": true,
      "stateMutability": "payable",
      "type": "function"
    },
    {
      "constant": false,
      "inputs": [],
      "name": "getRefund",
      "outputs": [],
      "payable": true,
      "stateMutability": "payable",
      "type": "function"
    },
    {
      "constant": false,
      "inputs": [],
      "name": "endSale",
      "outputs": [],
      "payable": true,
      "stateMutability": "payable",
      "type": "function"
    }
  ],
  "bytecode": "0x6080604052606460015560405162000eca38038062000eca833981018060405260608110156200002e57600080fd5b8101908080516401000000008111156200004757600080fd5b828101905060208101848111156200005e57600080fd5b81518560018202830111640100000000821117156200007c57600080fd5b505092919060200180516401000000008111156200009957600080fd5b82810190506020810184811115620000b057600080fd5b8151856001820283011164010000000082111715620000ce57600080fd5b505092919060200180519060200190929190505050336000806101000a81548173ffffffffffffffffffffffffffffffffffffffff021916908373ffffffffffffffffffffffffffffffffffffffff1602179055506001600260040160006101000a81548160ff02191690831515021790555082600260000190805190602001906200015c92919062000196565b5081600260010190805190602001906200017892919062000196565b50806002800181905550600060026003018190555050505062000245565b828054600181600116156101000203166002900490600052602060002090601f016020900481019282601f10620001d957805160ff19168380011785556200020a565b828001600101855582156200020a579182015b8281111562000209578251825591602001919060010190620001ec565b5b5090506200021991906200021d565b5090565b6200024291905b808211156200023e57600081600090555060010162000224565b5090565b90565b610c7580620002556000396000f3fe6080604052600436106100705760003560e01c80638da5cb5b1161004e5780638da5cb5b146101bf578063b2d5ae4414610216578063e7a8df5b14610220578063edfb91671461033557610070565b806305aea97c146100725780632f36663714610187578063380d831b146101b5575b005b34801561007e57600080fd5b5061008761039a565b60405180806020018060200186815260200185815260200184151515158152602001838103835288818151815260200191508051906020019080838360005b838110156100e15780820151818401526020810190506100c6565b50505050905090810190601f16801561010e5780820380516001836020036101000a031916815260200191505b50838103825287818151815260200191508051906020019080838360005b8381101561014757808201518184015260208101905061012c565b50505050905090810190601f1680156101745780820380516001836020036101000a031916815260200191505b5097505050505050505060405180910390f35b6101b36004803603602081101561019d57600080fd5b810190808035906020019092919050505061051c565b005b6101bd6106e0565b005b3480156101cb57600080fd5b506101d4610848565b604051808273ffffffffffffffffffffffffffffffffffffffff1673ffffffffffffffffffffffffffffffffffffffff16815260200191505060405180910390f35b61021e61086d565b005b34801561022c57600080fd5b50610235610a9c565b60405180806020018060200186815260200185815260200184151515158152602001838103835288818151815260200191508051906020019080838360005b8381101561028f578082015181840152602081019050610274565b50505050905090810190601f1680156102bc5780820380516001836020036101000a031916815260200191505b50838103825287818151815260200191508051906020019080838360005b838110156102f55780820151818401526020810190506102da565b50505050905090810190601f1680156103225780820380516001836020036101000a031916815260200191505b5097505050505050505060405180910390f35b34801561034157600080fd5b506103846004803603602081101561035857600080fd5b81019080803573ffffffffffffffffffffffffffffffffffffffff169060200190929190505050610bfd565b6040518082815260200191505060405180910390f35b606080600080600060026000018054600181600116156101000203166002900480601f01602080910402602001604051908101604052809291908181526020018280546001816001161561010002031660029004801561043b5780601f106104105761010080835404028352916020019161043b565b820191906000526020600020905b81548152906001019060200180831161041e57829003601f168201915b5050505050945060026001018054600181600116156101000203166002900480601f0160208091040260200160405190810160405280929190818152602001828054600181600116156101000203166002900480156104db5780601f106104b0576101008083540402835291602001916104db565b820191906000526020600020905b8154815290600101906020018083116104be57829003601f168201915b50505050509350600280015492506002600301549150600260040160009054906101000a900460ff1690508484848484945094509450945094509091929394565b60011515600260040160009054906101000a900460ff1615151461053f57600080fd5b80806001540234101561055157600080fd5b81600280015481111561056357600080fd5b823384600260050160003373ffffffffffffffffffffffffffffffffffffffff1673ffffffffffffffffffffffffffffffffffffffff1681526020019081526020016000205401600260050160003373ffffffffffffffffffffffffffffffffffffffff1673ffffffffffffffffffffffffffffffffffffffff16815260200190815260200160002081905550846002800160008282540392505081905550846002600301600082825401925050819055507f72240c1be87ee789414e12fc30844d39a55d1eaf3b8741489fe381ad2b6cdd473386604051808373ffffffffffffffffffffffffffffffffffffffff1673ffffffffffffffffffffffffffffffffffffffff1681526020018281526020019250505060405180910390a1600082600154029050600081340390508273ffffffffffffffffffffffffffffffffffffffff166108fc829081150290604051600060405180830381858888f193505050501580156106d6573d6000803e3d6000fd5b5050505050505050565b338073ffffffffffffffffffffffffffffffffffffffff166000809054906101000a900473ffffffffffffffffffffffffffffffffffffffff1673ffffffffffffffffffffffffffffffffffffffff161461073a57600080fd5b6000600260040160006101000a81548160ff02191690831515021790555060006001546002600301540290506000809054906101000a900473ffffffffffffffffffffffffffffffffffffffff1673ffffffffffffffffffffffffffffffffffffffff166108fc829081150290604051600060405180830381858888f193505050501580156107cd573d6000803e3d6000fd5b507f21e7b2f8578199ba3904a63b7cd799784c8cadde57dde563a7de95ef792e256c3382604051808373ffffffffffffffffffffffffffffffffffffffff1673ffffffffffffffffffffffffffffffffffffffff1681526020018281526020019250505060405180910390a160006002600301819055505050565b6000809054906101000a900473ffffffffffffffffffffffffffffffffffffffff1681565b6000600260050160003373ffffffffffffffffffffffffffffffffffffffff1673ffffffffffffffffffffffffffffffffffffffff16815260200190815260200160002054116108bc57600080fd5b33600260050160003373ffffffffffffffffffffffffffffffffffffffff1673ffffffffffffffffffffffffffffffffffffffff1681526020019081526020016000205460028001600082825401925050819055507f492e1d962a477f77890c7cfdb563d7ddc58fee6505741794fa5700ada3c1604133600260050160003373ffffffffffffffffffffffffffffffffffffffff1673ffffffffffffffffffffffffffffffffffffffff16815260200190815260200160002054604051808373ffffffffffffffffffffffffffffffffffffffff1673ffffffffffffffffffffffffffffffffffffffff1681526020018281526020019250505060405180910390a16000600260050160008373ffffffffffffffffffffffffffffffffffffffff1673ffffffffffffffffffffffffffffffffffffffff168152602001908152602001600020546001540290506000600260050160008473ffffffffffffffffffffffffffffffffffffffff1673ffffffffffffffffffffffffffffffffffffffff168152602001908152602001600020819055508173ffffffffffffffffffffffffffffffffffffffff166108fc829081150290604051600060405180830381858888f19350505050158015610a97573d6000803e3d6000fd5b505050565b6002806000018054600181600116156101000203166002900480601f016020809104026020016040519081016040528092919081815260200182805460018160011615610100020316600290048015610b365780601f10610b0b57610100808354040283529160200191610b36565b820191906000526020600020905b815481529060010190602001808311610b1957829003601f168201915b505050505090806001018054600181600116156101000203166002900480601f016020809104026020016040519081016040528092919081815260200182805460018160011615610100020316600290048015610bd45780601f10610ba957610100808354040283529160200191610bd4565b820191906000526020600020905b815481529060010190602001808311610bb757829003601f168201915b5050505050908060020154908060030154908060040160009054906101000a900460ff16905085565b6000600260050160008373ffffffffffffffffffffffffffffffffffffffff1673ffffffffffffffffffffffffffffffffffffffff16815260200190815260200160002054905091905056fea165627a7a723058208975631b9e6cf05b16c498f113d87ed7d73faff1fe1fe531e3f9c37db68717fe0029",
  "source": "pragma solidity ^0.5.0;\r\n\r\n    /*\r\n        The EventTickets contract keeps track of the details and ticket sales of one event.\r\n     */\r\n\r\ncontract EventTickets {\r\n\r\n    /*\r\n        Create a public state variable called owner.\r\n        Use the appropriate keyword to create an associated getter function.\r\n        Use the appropriate keyword to allow ether transfers.\r\n     */\r\n    address payable public owner;\r\n\r\n    uint   TICKET_PRICE = 100 wei;\r\n\r\n    /*\r\n        Create a struct called \"Event\".\r\n        The struct has 6 fields: description, website (URL), totalTickets, sales, buyers, and isOpen.\r\n        Choose the appropriate variable type for each field.\r\n        The \"buyers\" field should keep track of addresses and how many tickets each buyer purchases.\r\n    */\r\n    struct Event {\r\n        string description;\r\n        string website;\r\n        uint totalTickets;\r\n        uint sales;\r\n        bool isOpen;\r\n        mapping (address => uint) buyers;\r\n    }\r\n\r\n    Event public myEvent;\r\n\r\n    /*\r\n        Define 3 logging events.\r\n        LogBuyTickets should provide information about the purchaser and the number of tickets purchased.\r\n        LogGetRefund should provide information about the refund requester and the number of tickets refunded.\r\n        LogEndSale should provide infromation about the contract owner and the balance transferred to them.\r\n    */\r\n    event LogBuyTickets(address addr, uint numTickets);\r\n    event LogGetRefund(address addr, uint numTicketsRefunded);\r\n    event LogEndSale(address addr, uint balanceTransferred);\r\n\r\n    /*\r\n        Create a modifier that throws an error if the msg.sender is not the owner.\r\n    */\r\n    modifier isOwner(address _address) { require (owner == _address); _;}\r\n    modifier isEventOpen() { require (myEvent.isOpen == true); _; }\r\n\r\n    modifier paidEnough(uint _numTicketsToBuy) { require(msg.value >= (TICKET_PRICE * _numTicketsToBuy )); _;}\r\n\r\n    modifier enoughTickets(uint _numTicketsToBuy) { require(_numTicketsToBuy <= myEvent.totalTickets); _; }\r\n\r\n    modifier checkValue(uint _numTicketsToBuy, address payable _addr)  {\r\n    //refund them after pay for item\r\n        _;\r\n        uint _price = TICKET_PRICE * _numTicketsToBuy;\r\n        uint amountToRefund = msg.value - _price;\r\n        //myEvent.buyers[_addr] -= _numTicketsToBuy;\r\n        _addr.transfer(amountToRefund);\r\n    }\r\n\r\n    modifier refund(address payable _addr) {\r\n        _;\r\n        uint amountToRefund = TICKET_PRICE * myEvent.buyers[_addr];\r\n        myEvent.buyers[_addr] = 0;\r\n        _addr.transfer(amountToRefund);\r\n    }\r\n\r\n    modifier hasPurchasedTickets() { require(myEvent.buyers[msg.sender] > 0); _; }\r\n\r\n    modifier withdrawBalance() {\r\n        _;\r\n        owner.transfer(address(this).balance);\r\n    }\r\n\r\n    /*\r\n        Define a constructor.\r\n        The constructor takes 3 arguments, the description, the URL and the number of tickets for sale.\r\n        Set the owner to the creator of the contract.\r\n        Set the appropriate myEvent details.\r\n    */\r\n    constructor(string memory _description, string memory _websiteURL, uint _tickets4Sale) public payable {\r\n       owner = msg.sender;\r\n       myEvent.isOpen = true;\r\n       myEvent.description = _description;\r\n       myEvent.website = _websiteURL;\r\n       myEvent.totalTickets = _tickets4Sale;\r\n       myEvent.sales = 0;\r\n    }\r\n\r\n    /*\r\n        Define a function called readEvent() that returns the event details.\r\n        This function does not modify state, add the appropriate keyword.\r\n        The returned details should be called description, website, uint totalTickets, uint sales, bool isOpen in that order.\r\n    */\r\n    function readEvent()\r\n        public\r\n        view\r\n        returns(string memory description, string memory website, uint totalTickets, uint sales, bool isOpen)\r\n    {\r\n        description = myEvent.description;\r\n        website = myEvent.website;\r\n        totalTickets = myEvent.totalTickets;\r\n        sales = myEvent.sales;\r\n        isOpen = myEvent.isOpen;\r\n        return (description, website, totalTickets, sales, isOpen);\r\n    }\r\n\r\n    /*\r\n        Define a function called getBuyerTicketCount().\r\n        This function takes 1 argument, an address and\r\n        returns the number of tickets that address has purchased.\r\n    */\r\n    function getBuyerTicketCount(address _addr)\r\n    public\r\n    view\r\n    returns(uint ticketsPurchased)\r\n    {\r\n        return (myEvent.buyers[_addr]);\r\n    }\r\n\r\n\r\n    /*\r\n        Define a function called buyTickets().\r\n        This function allows someone to purchase tickets for the event.\r\n        This function takes one argument, the number of tickets to be purchased.\r\n        This function can accept Ether.\r\n        Be sure to check:\r\n            - That the event isOpen\r\n            - That the transaction value is sufficient for the number of tickets purchased\r\n            - That there are enough tickets in stock\r\n        Then:\r\n            - add the appropriate number of tickets to the purchasers count\r\n            - account for the purchase in the remaining number of available tickets\r\n            - refund any surplus value sent with the transaction\r\n            - emit the appropriate event\r\n    */\r\n    function buyTickets(uint _numTicketsToBuy)\r\n    public\r\n    payable\r\n    isEventOpen()\r\n    paidEnough(_numTicketsToBuy)\r\n    enoughTickets(_numTicketsToBuy)\r\n    checkValue(_numTicketsToBuy, msg.sender)\r\n    {\r\n        myEvent.buyers[msg.sender] = myEvent.buyers[msg.sender]  + _numTicketsToBuy;\r\n        myEvent.totalTickets -= _numTicketsToBuy;\r\n        myEvent.sales += _numTicketsToBuy;\r\n        emit LogBuyTickets(msg.sender, _numTicketsToBuy);\r\n    }\r\n\r\n\r\n\r\n    /*\r\n        Define a function called getRefund().\r\n        This function allows someone to get a refund for tickets for the account they purchased from.\r\n        TODO:\r\n            - Check that the requester has purchased tickets.\r\n            - Make sure the refunded tickets go back into the pool of avialable tickets.\r\n            - Transfer the appropriate amount to the refund requester.\r\n            - Emit the appropriate event.\r\n    */\r\n    function getRefund()\r\n    public\r\n    payable\r\n    hasPurchasedTickets()\r\n    refund(msg.sender)\r\n    {\r\n        myEvent.totalTickets += myEvent.buyers[msg.sender];\r\n        emit LogGetRefund(msg.sender, myEvent.buyers[msg.sender]);\r\n    }\r\n\r\n    /*\r\n        Define a function called endSale().\r\n        This function will close the ticket sales.\r\n        This function can only be called by the contract owner.\r\n        TODO:\r\n            - close the event\r\n            - transfer the contract balance to the owner\r\n            - emit the appropriate event\r\n    */\r\n    function endSale()\r\n    public\r\n    payable\r\n    isOwner(msg.sender)\r\n    //withdrawBalance()\r\n    {\r\n        myEvent.isOpen = false;\r\n        uint eventBalance = myEvent.sales * TICKET_PRICE;\r\n        owner.transfer(eventBalance);\r\n        emit LogEndSale(msg.sender, eventBalance);\r\n        myEvent.sales = 0;\r\n    }\r\n\r\n\r\n    function() external payable {\r\n    }\r\n}\r\n",
  "sourcePath": "G:/Personal/ConsenSys/EventTickets/event-ticket-exercise-JafCR/contracts/EventTickets.sol",
  "compiler": {
    "name": "solc",
    "version": "0.5.8+commit.23d335f2.Emscripten.clang"
  },
  "schemaVersion": "3.0.17",
  "updatedAt": "2019-11-18T16:33:21.294Z",
  "networkType": "ethereum",
  "devdoc": {
    "methods": {}
  },
  "userdoc": {
    "methods": {}
  }
}